{
  "contractName": "Warranty",
  "abi": [
    {
      "inputs": [],
      "stateMutability": "nonpayable",
      "type": "constructor"
    },
    {
      "anonymous": false,
      "inputs": [
        {
          "indexed": true,
          "internalType": "string",
          "name": "serial_no",
          "type": "string"
        }
      ],
      "name": "Burned",
      "type": "event"
    },
    {
      "anonymous": false,
      "inputs": [
        {
          "indexed": true,
          "internalType": "uint64",
          "name": "to",
          "type": "uint64"
        },
        {
          "indexed": true,
          "internalType": "string",
          "name": "serial_no",
          "type": "string"
        },
        {
          "indexed": false,
          "internalType": "uint64",
          "name": "tokenNo",
          "type": "uint64"
        }
      ],
      "name": "Mint",
      "type": "event"
    },
    {
      "anonymous": false,
      "inputs": [
        {
          "indexed": true,
          "internalType": "uint64",
          "name": "from",
          "type": "uint64"
        },
        {
          "indexed": true,
          "internalType": "uint64",
          "name": "to",
          "type": "uint64"
        },
        {
          "indexed": true,
          "internalType": "string",
          "name": "serial_no",
          "type": "string"
        }
      ],
      "name": "Transfer",
      "type": "event"
    },
    {
      "inputs": [
        {
          "internalType": "uint64",
          "name": "_mobile_no",
          "type": "uint64"
        },
        {
          "internalType": "string",
          "name": "_serial_no",
          "type": "string"
        },
        {
          "internalType": "string",
          "name": "_cid",
          "type": "string"
        },
        {
          "internalType": "uint64",
          "name": "_startAfter",
          "type": "uint64"
        }
      ],
      "name": "mintWarrantyCardNFT",
      "outputs": [],
      "stateMutability": "nonpayable",
      "type": "function"
    },
    {
      "inputs": [
        {
          "internalType": "string",
          "name": "_serial_no",
          "type": "string"
        }
      ],
      "name": "burnWarrantyCardNFT",
      "outputs": [
        {
          "internalType": "bool",
          "name": "succeeded",
          "type": "bool"
        }
      ],
      "stateMutability": "nonpayable",
      "type": "function"
    },
    {
      "inputs": [
        {
          "internalType": "uint64",
          "name": "from",
          "type": "uint64"
        },
        {
          "internalType": "uint64",
          "name": "to",
          "type": "uint64"
        },
        {
          "internalType": "string",
          "name": "_serial_no",
          "type": "string"
        }
      ],
      "name": "sendOwnership",
      "outputs": [],
      "stateMutability": "nonpayable",
      "type": "function"
    },
    {
      "inputs": [
        {
          "internalType": "string",
          "name": "_serial_no",
          "type": "string"
        }
      ],
      "name": "getSerialNoOwnerMobileNo",
      "outputs": [
        {
          "internalType": "uint64",
          "name": "mobileNo",
          "type": "uint64"
        }
      ],
      "stateMutability": "view",
      "type": "function",
      "constant": true
    },
    {
      "inputs": [
        {
          "internalType": "uint64",
          "name": "_mobile_no",
          "type": "uint64"
        },
        {
          "internalType": "string",
          "name": "_serial_no",
          "type": "string"
        }
      ],
      "name": "getNFTFor",
      "outputs": [
        {
          "components": [
            {
              "internalType": "uint64",
              "name": "startTimestamp",
              "type": "uint64"
            },
            {
              "internalType": "uint64",
              "name": "startAfter",
              "type": "uint64"
            },
            {
              "internalType": "string",
              "name": "serial_no",
              "type": "string"
            },
            {
              "internalType": "string",
              "name": "cid",
              "type": "string"
            }
          ],
          "internalType": "struct Warranty.nft",
          "name": "NFT",
          "type": "tuple"
        }
      ],
      "stateMutability": "view",
      "type": "function",
      "constant": true
    }
  ],
  "bytecode": "0x60806040523480156200001157600080fd5b50336000806101000a81548173ffffffffffffffffffffffffffffffffffffffff021916908373ffffffffffffffffffffffffffffffffffffffff1602179055506200005c6200012d565b600381908060018154018082558091505060019003906000526020600020906003020160009091909190915060008201518160000160006101000a81548167ffffffffffffffff021916908367ffffffffffffffff16021790555060208201518160000160086101000a81548167ffffffffffffffff021916908367ffffffffffffffff16021790555060408201518160010190805190602001906200010492919062000169565b5060608201518160020190805190602001906200012392919062000169565b505050506200027d565b6040518060800160405280600067ffffffffffffffff168152602001600067ffffffffffffffff16815260200160608152602001606081525090565b828054620001779062000248565b90600052602060002090601f0160209004810192826200019b5760008555620001e7565b82601f10620001b657805160ff1916838001178555620001e7565b82800160010185558215620001e7579182015b82811115620001e6578251825591602001919060010190620001c9565b5b509050620001f69190620001fa565b5090565b5b8082111562000215576000816000905550600101620001fb565b5090565b7f4e487b7100000000000000000000000000000000000000000000000000000000600052602260045260246000fd5b600060028204905060018216806200026157607f821691505b60208210810362000277576200027662000219565b5b50919050565b611c85806200028d6000396000f3fe608060405234801561001057600080fd5b50600436106100575760003560e01c80632236343b1461005c5780632b9cdc0d146100785780639f0d19de146100a8578063d6e63d72146100c4578063f3d44b9a146100f4575b600080fd5b610076600480360381019061007191906112af565b610124565b005b610092600480360381019061008d9190611356565b6106f3565b60405161009f91906113be565b60405180910390f35b6100c260048036038101906100bd91906113d9565b610ade565b005b6100de60048036038101906100d99190611356565b610dd4565b6040516100eb919061145c565b60405180910390f35b61010e60048036038101906101099190611477565b610e65565b60405161011b91906115e9565b60405180910390f35b60008054906101000a900473ffffffffffffffffffffffffffffffffffffffff1673ffffffffffffffffffffffffffffffffffffffff163373ffffffffffffffffffffffffffffffffffffffff16146101b2576040517f08c379a00000000000000000000000000000000000000000000000000000000081526004016101a99061168e565b60405180910390fd5b60008667ffffffffffffffff16036101ff576040517f08c379a00000000000000000000000000000000000000000000000000000000081526004016101f690611720565b60405180910390fd5b60006004868660405161021392919061177f565b908152602001604051809103902060009054906101000a900467ffffffffffffffff1667ffffffffffffffff1614610280576040517f08c379a0000000000000000000000000000000000000000000000000000000008152600401610277906117e4565b60405180910390fd5b60008167ffffffffffffffff1610156102ce576040517f08c379a00000000000000000000000000000000000000000000000000000000081526004016102c590611850565b60405180910390fd5b600060405180608001604052804267ffffffffffffffff1681526020018367ffffffffffffffff16815260200187878080601f016020809104026020016040519081016040528093929190818152602001838380828437600081840152601f19601f82011690508083019250505050505050815260200185858080601f016020809104026020016040519081016040528093929190818152602001838380828437600081840152601f19601f8201169050808301925050505050505081525090506000806002805490500361047c57600382908060018154018082558091505060019003906000526020600020906003020160009091909190915060008201518160000160006101000a81548167ffffffffffffffff021916908367ffffffffffffffff16021790555060208201518160000160086101000a81548167ffffffffffffffff021916908367ffffffffffffffff16021790555060408201518160010190805190602001906104439291906110e1565b5060608201518160020190805190602001906104609291906110e1565b5050506001600380549050610475919061189f565b90506105dc565b6002600160028054905061049091906118dd565b815481106104a1576104a0611911565b5b90600052602060002090600491828204019190066008029054906101000a900467ffffffffffffffff16905060028054806104df576104de611940565b5b60019003818190600052602060002090600491828204019190066008026101000a81549067ffffffffffffffff021916905590558160038267ffffffffffffffff168154811061053257610531611911565b5b906000526020600020906003020160008201518160000160006101000a81548167ffffffffffffffff021916908367ffffffffffffffff16021790555060208201518160000160086101000a81548167ffffffffffffffff021916908367ffffffffffffffff16021790555060408201518160010190805190602001906105ba9291906110e1565b5060608201518160020190805190602001906105d79291906110e1565b509050505b80600160008a67ffffffffffffffff1667ffffffffffffffff168152602001908152602001600020888860405161061492919061177f565b908152602001604051809103902060006101000a81548167ffffffffffffffff021916908367ffffffffffffffff160217905550876004888860405161065b92919061177f565b908152602001604051809103902060006101000a81548167ffffffffffffffff021916908367ffffffffffffffff160217905550868660405161069f92919061177f565b60405180910390208867ffffffffffffffff167f4e5a9fa717ce9f14d92157fc1162f9732ec8380a8e05fce55a642076634fbdcc836040516106e1919061145c565b60405180910390a35050505050505050565b60008060009054906101000a900473ffffffffffffffffffffffffffffffffffffffff1673ffffffffffffffffffffffffffffffffffffffff163373ffffffffffffffffffffffffffffffffffffffff1614610784576040517f08c379a000000000000000000000000000000000000000000000000000000000815260040161077b9061168e565b60405180910390fd5b60006004848460405161079892919061177f565b908152602001604051809103902060009054906101000a900467ffffffffffffffff16905060008167ffffffffffffffff160361080a576040517f08c379a0000000000000000000000000000000000000000000000000000000008152600401610801906119e1565b60405180910390fd5b6000600160008367ffffffffffffffff1667ffffffffffffffff168152602001908152602001600020858560405161084392919061177f565b908152602001604051809103902060009054906101000a900467ffffffffffffffff169050600060038267ffffffffffffffff168154811061088857610887611911565b5b90600052602060002090600302019050428160000160089054906101000a900467ffffffffffffffff168260000160009054906101000a900467ffffffffffffffff166108d59190611a01565b67ffffffffffffffff161015610920576040517f08c379a000000000000000000000000000000000000000000000000000000000815260040161091790611a8b565b60405180910390fd5b600160008467ffffffffffffffff1667ffffffffffffffff168152602001908152602001600020868660405161095792919061177f565b908152602001604051809103902060006101000a81549067ffffffffffffffff02191690556004868660405161098e92919061177f565b908152602001604051809103902060006101000a81549067ffffffffffffffff021916905560038267ffffffffffffffff16815481106109d1576109d0611911565b5b9060005260206000209060030201600080820160006101000a81549067ffffffffffffffff02191690556000820160086101000a81549067ffffffffffffffff0219169055600182016000610a269190611167565b600282016000610a369190611167565b505060028290806001815401808255809150506001900390600052602060002090600491828204019190066008029091909190916101000a81548167ffffffffffffffff021916908367ffffffffffffffff1602179055508585604051610a9e92919061177f565b60405180910390207e79532291b9951a9a3043187ada36c51ff026f22a41083b521269e30eab50ff60405160405180910390a26001935050505092915050565b60008054906101000a900473ffffffffffffffffffffffffffffffffffffffff1673ffffffffffffffffffffffffffffffffffffffff163373ffffffffffffffffffffffffffffffffffffffff1614610b6c576040517f08c379a0000000000000000000000000000000000000000000000000000000008152600401610b639061168e565b60405180910390fd5b6000600160008667ffffffffffffffff1667ffffffffffffffff1681526020019081526020016000208383604051610ba592919061177f565b908152602001604051809103902060009054906101000a900467ffffffffffffffff16905060008167ffffffffffffffff1603610c17576040517f08c379a0000000000000000000000000000000000000000000000000000000008152600401610c0e90611af7565b60405180910390fd5b600160008667ffffffffffffffff1667ffffffffffffffff1681526020019081526020016000208383604051610c4e92919061177f565b908152602001604051809103902060006101000a81549067ffffffffffffffff021916905560008467ffffffffffffffff1603610cc0576040517f08c379a0000000000000000000000000000000000000000000000000000000008152600401610cb790611b63565b60405180910390fd5b8360048484604051610cd392919061177f565b908152602001604051809103902060006101000a81548167ffffffffffffffff021916908367ffffffffffffffff16021790555080600160008667ffffffffffffffff1667ffffffffffffffff1681526020019081526020016000208484604051610d3f92919061177f565b908152602001604051809103902060006101000a81548167ffffffffffffffff021916908367ffffffffffffffff1602179055508282604051610d8392919061177f565b60405180910390208467ffffffffffffffff168667ffffffffffffffff167f6f78bfe7e99fa15223794f00ce138882222acd5d90c0edd266ae7644d01c669e60405160405180910390a45050505050565b60008060048484604051610de992919061177f565b908152602001604051809103902060009054906101000a900467ffffffffffffffff16905060008167ffffffffffffffff1603610e5b576040517f08c379a0000000000000000000000000000000000000000000000000000000008152600401610e5290611bcf565b60405180910390fd5b8091505092915050565b610e6d6111a7565b6000600160008667ffffffffffffffff1667ffffffffffffffff1681526020019081526020016000208484604051610ea692919061177f565b908152602001604051809103902060009054906101000a900467ffffffffffffffff16905060008167ffffffffffffffff1611610f18576040517f08c379a0000000000000000000000000000000000000000000000000000000008152600401610f0f90611af7565b60405180910390fd5b60038167ffffffffffffffff1681548110610f3657610f35611911565b5b90600052602060002090600302016040518060800160405290816000820160009054906101000a900467ffffffffffffffff1667ffffffffffffffff1667ffffffffffffffff1681526020016000820160089054906101000a900467ffffffffffffffff1667ffffffffffffffff1667ffffffffffffffff168152602001600182018054610fc390611c1e565b80601f0160208091040260200160405190810160405280929190818152602001828054610fef90611c1e565b801561103c5780601f106110115761010080835404028352916020019161103c565b820191906000526020600020905b81548152906001019060200180831161101f57829003601f168201915b5050505050815260200160028201805461105590611c1e565b80601f016020809104026020016040519081016040528092919081815260200182805461108190611c1e565b80156110ce5780601f106110a3576101008083540402835291602001916110ce565b820191906000526020600020905b8154815290600101906020018083116110b157829003601f168201915b5050505050815250509150509392505050565b8280546110ed90611c1e565b90600052602060002090601f01602090048101928261110f5760008555611156565b82601f1061112857805160ff1916838001178555611156565b82800160010185558215611156579182015b8281111561115557825182559160200191906001019061113a565b5b50905061116391906111e3565b5090565b50805461117390611c1e565b6000825580601f1061118557506111a4565b601f0160209004906000526020600020908101906111a391906111e3565b5b50565b6040518060800160405280600067ffffffffffffffff168152602001600067ffffffffffffffff16815260200160608152602001606081525090565b5b808211156111fc5760008160009055506001016111e4565b5090565b600080fd5b600080fd5b600067ffffffffffffffff82169050919050565b6112278161120a565b811461123257600080fd5b50565b6000813590506112448161121e565b92915050565b600080fd5b600080fd5b600080fd5b60008083601f84011261126f5761126e61124a565b5b8235905067ffffffffffffffff81111561128c5761128b61124f565b5b6020830191508360018202830111156112a8576112a7611254565b5b9250929050565b600080600080600080608087890312156112cc576112cb611200565b5b60006112da89828a01611235565b965050602087013567ffffffffffffffff8111156112fb576112fa611205565b5b61130789828a01611259565b9550955050604087013567ffffffffffffffff81111561132a57611329611205565b5b61133689828a01611259565b9350935050606061134989828a01611235565b9150509295509295509295565b6000806020838503121561136d5761136c611200565b5b600083013567ffffffffffffffff81111561138b5761138a611205565b5b61139785828601611259565b92509250509250929050565b60008115159050919050565b6113b8816113a3565b82525050565b60006020820190506113d360008301846113af565b92915050565b600080600080606085870312156113f3576113f2611200565b5b600061140187828801611235565b945050602061141287828801611235565b935050604085013567ffffffffffffffff81111561143357611432611205565b5b61143f87828801611259565b925092505092959194509250565b6114568161120a565b82525050565b6000602082019050611471600083018461144d565b92915050565b6000806000604084860312156114905761148f611200565b5b600061149e86828701611235565b935050602084013567ffffffffffffffff8111156114bf576114be611205565b5b6114cb86828701611259565b92509250509250925092565b6114e08161120a565b82525050565b600081519050919050565b600082825260208201905092915050565b60005b83811015611520578082015181840152602081019050611505565b8381111561152f576000848401525b50505050565b6000601f19601f8301169050919050565b6000611551826114e6565b61155b81856114f1565b935061156b818560208601611502565b61157481611535565b840191505092915050565b600060808301600083015161159760008601826114d7565b5060208301516115aa60208601826114d7565b50604083015184820360408601526115c28282611546565b915050606083015184820360608601526115dc8282611546565b9150508091505092915050565b60006020820190508181036000830152611603818461157f565b905092915050565b600082825260208201905092915050565b7f4f6e6c79206f776e657220697320616c6c6f77656420746f20706572666f726d60008201527f2074686973206f7065726174696f6e0000000000000000000000000000000000602082015250565b6000611678602f8361160b565b91506116838261161c565b604082019050919050565b600060208201905081810360008301526116a78161166b565b9050919050565b7f706c656173652070726f766964652076616c6964206d6f62696c65206e756d6260008201527f6572000000000000000000000000000000000000000000000000000000000000602082015250565b600061170a60228361160b565b9150611715826116ae565b604082019050919050565b60006020820190508181036000830152611739816116fd565b9050919050565b600081905092915050565b82818337600083830152505050565b60006117668385611740565b935061177383858461174b565b82840190509392505050565b600061178c82848661175a565b91508190509392505050565b7f53657269616c206e756d62657220697320616c72656164792074616b656e0000600082015250565b60006117ce601e8361160b565b91506117d982611798565b602082019050919050565b600060208201905081810360008301526117fd816117c1565b9050919050565b7f6e6f742076616c69642073746172742074696d65000000000000000000000000600082015250565b600061183a60148361160b565b915061184582611804565b602082019050919050565b600060208201905081810360008301526118698161182d565b9050919050565b7f4e487b7100000000000000000000000000000000000000000000000000000000600052601160045260246000fd5b60006118aa8261120a565b91506118b58361120a565b9250828210156118c8576118c7611870565b5b828203905092915050565b6000819050919050565b60006118e8826118d3565b91506118f3836118d3565b92508282101561190657611905611870565b5b828203905092915050565b7f4e487b7100000000000000000000000000000000000000000000000000000000600052603260045260246000fd5b7f4e487b7100000000000000000000000000000000000000000000000000000000600052603160045260246000fd5b7f546869732073657269616c206e756d62657220686173206e6f2077617272616e60008201527f7479204e46540000000000000000000000000000000000000000000000000000602082015250565b60006119cb60268361160b565b91506119d68261196f565b604082019050919050565b600060208201905081810360008301526119fa816119be565b9050919050565b6000611a0c8261120a565b9150611a178361120a565b92508267ffffffffffffffff03821115611a3457611a33611870565b5b828201905092915050565b7f7265706c6163656d656e742074696d65206f7665720000000000000000000000600082015250565b6000611a7560158361160b565b9150611a8082611a3f565b602082019050919050565b60006020820190508181036000830152611aa481611a68565b9050919050565b7f506c656173652070726f7669646520636f727265637420646174610000000000600082015250565b6000611ae1601b8361160b565b9150611aec82611aab565b602082019050919050565b60006020820190508181036000830152611b1081611ad4565b9050919050565b7f506c656173652070726f766964652076616c6964207265636965766572000000600082015250565b6000611b4d601d8361160b565b9150611b5882611b17565b602082019050919050565b60006020820190508181036000830152611b7c81611b40565b9050919050565b7f73657269616c206e6f20646f6573206e6f742065786973747300000000000000600082015250565b6000611bb960198361160b565b9150611bc482611b83565b602082019050919050565b60006020820190508181036000830152611be881611bac565b9050919050565b7f4e487b7100000000000000000000000000000000000000000000000000000000600052602260045260246000fd5b60006002820490506001821680611c3657607f821691505b602082108103611c4957611c48611bef565b5b5091905056fea2646970667358221220fdf09d40433b0c41c2a4d53e27143cf488b7c924055df6c00191a891103ce24e64736f6c634300080d0033",
  "immutableReferences": {},
  "source": "//SPDX-License-Identifier: MIT\r\npragma solidity ^0.8.13;\r\n\r\ncontract Warranty {\r\n    address private owner;\r\n    struct nft {\r\n        uint64 startTimestamp;\r\n        uint64 startAfter;\r\n        string serial_no;\r\n        string cid;\r\n    }\r\n\r\n    mapping(uint64 => mapping(string => uint64)) private myNFT;\r\n    uint64[] private erased;\r\n    nft[] nft_collection;\r\n    mapping(string => uint64) private serial_no_owner_mob_no;\r\n    modifier onlyOwner() {\r\n        require(\r\n            msg.sender == owner,\r\n            \"Only owner is allowed to perform this operation\"\r\n        );\r\n        _;\r\n    }\r\n\r\n    event Mint(uint64 indexed to, string indexed serial_no, uint64 tokenNo);\r\n    event Transfer(\r\n        uint64 indexed from,\r\n        uint64 indexed to,\r\n        string indexed serial_no\r\n    );\r\n    event Burned(string indexed serial_no);\r\n    constructor() {\r\n        owner = msg.sender;\r\n        nft memory tempNFt;\r\n        nft_collection.push(tempNFt);\r\n    }\r\n\r\n    function mintWarrantyCardNFT(\r\n        uint64 _mobile_no,\r\n        string calldata _serial_no,\r\n        string calldata _cid,\r\n        uint64 _startAfter\r\n    ) external onlyOwner {\r\n        require(_mobile_no != 0, \"please provide valid mobile number\");\r\n        require(\r\n            serial_no_owner_mob_no[_serial_no] == 0,\r\n            \"Serial number is already taken\"\r\n        );\r\n        require(_startAfter >= 0, \"not valid start time\");\r\n        nft memory newNft = nft(\r\n            uint64(block.timestamp),\r\n            _startAfter,\r\n            _serial_no,\r\n            _cid\r\n        );\r\n        uint64 tokenNo;\r\n        if (erased.length == 0) {\r\n            nft_collection.push(newNft);\r\n            tokenNo = uint64(nft_collection.length) - 1;\r\n        } else {\r\n            tokenNo = erased[erased.length - 1];\r\n            erased.pop();\r\n            nft_collection[tokenNo] = newNft;\r\n        }\r\n        myNFT[_mobile_no][_serial_no] = tokenNo;\r\n        serial_no_owner_mob_no[_serial_no] = _mobile_no;\r\n        emit Mint(_mobile_no, _serial_no, tokenNo);\r\n    }\r\n\r\n    function burnWarrantyCardNFT(string calldata _serial_no)\r\n        external\r\n        onlyOwner\r\n        returns (bool succeeded)\r\n    {\r\n        uint64 mobile_no = serial_no_owner_mob_no[_serial_no];\r\n        require(mobile_no != 0, \"This serial number has no warranty NFT\");\r\n        uint64 tokenNo = myNFT[mobile_no][_serial_no];\r\n        nft storage wc = nft_collection[tokenNo];\r\n\r\n        require (wc.startTimestamp + wc.startAfter >= block.timestamp,\"replacement time over\");\r\n\r\n        delete myNFT[mobile_no][_serial_no];\r\n        delete serial_no_owner_mob_no[_serial_no];\r\n        delete nft_collection[tokenNo];\r\n        erased.push(tokenNo);\r\n        emit Burned(_serial_no);\r\n        return true;\r\n    }\r\n\r\n    function sendOwnership(\r\n        uint64 from,\r\n        uint64 to,\r\n        string calldata _serial_no\r\n    ) external onlyOwner {\r\n        uint64 tokenNo = myNFT[from][_serial_no];\r\n        require(tokenNo != 0, \"Please provide correct data\");\r\n        delete myNFT[from][_serial_no];\r\n        require(to != 0, \"Please provide valid reciever\");\r\n        serial_no_owner_mob_no[_serial_no] = to;\r\n        myNFT[to][_serial_no] = tokenNo;\r\n        emit Transfer(from, to, _serial_no);\r\n    }\r\n\r\n    function getSerialNoOwnerMobileNo(string calldata _serial_no)\r\n        external\r\n        view\r\n        returns (uint64 mobileNo)\r\n    {\r\n        uint64 Owner=serial_no_owner_mob_no[_serial_no];\r\n        require(Owner!=0,\"serial no does not exists\");\r\n        return Owner;\r\n    }\r\n\r\n    function getNFTFor(uint64 _mobile_no, string calldata _serial_no)\r\n        external\r\n        view\r\n        returns (nft memory NFT)\r\n    {\r\n        uint64 tokenId = myNFT[_mobile_no][_serial_no];\r\n        require(tokenId > 0, \"Please provide correct data\");\r\n        return nft_collection[tokenId];\r\n    }\r\n\r\n}\r\n",
  "sourcePath": "C:\\Users\\Durgesh Maurya\\Desktop\\flipkart\\smartContracts\\contracts\\Warranty.sol",
  "compiler": {
    "name": "solc",
    "version": "0.8.13+commit.abaa5c0e.Emscripten.clang"
  },
  "schemaVersion": "3.4.6",
  "updatedAt": "2022-07-21T03:19:52.620Z",
  "networkType": "ethereum",
  "devdoc": {
    "kind": "dev",
    "methods": {},
    "version": 1
  },
  "userdoc": {
    "kind": "user",
    "methods": {},
    "version": 1
  }
}