{
  "contractName": "testing",
  "abi": [
    {
      "inputs": [],
      "stateMutability": "nonpayable",
      "type": "constructor"
    },
    {
      "anonymous": false,
      "inputs": [
        {
          "indexed": true,
          "internalType": "uint64",
          "name": "to",
          "type": "uint64"
        },
        {
          "indexed": true,
          "internalType": "string",
          "name": "serial_no",
          "type": "string"
        },
        {
          "indexed": false,
          "internalType": "uint64",
          "name": "tokenNo",
          "type": "uint64"
        }
      ],
      "name": "Mint",
      "type": "event"
    },
    {
      "anonymous": false,
      "inputs": [
        {
          "indexed": true,
          "internalType": "uint64",
          "name": "from",
          "type": "uint64"
        },
        {
          "indexed": true,
          "internalType": "uint64",
          "name": "to",
          "type": "uint64"
        },
        {
          "indexed": true,
          "internalType": "string",
          "name": "serial_no",
          "type": "string"
        }
      ],
      "name": "Transfer",
      "type": "event"
    },
    {
      "inputs": [
        {
          "internalType": "uint64",
          "name": "_mobile_no",
          "type": "uint64"
        },
        {
          "internalType": "string",
          "name": "_serial_no",
          "type": "string"
        },
        {
          "internalType": "string",
          "name": "_cid",
          "type": "string"
        },
        {
          "internalType": "uint64",
          "name": "_startAfter",
          "type": "uint64"
        }
      ],
      "name": "mintWarrantyCardNFT",
      "outputs": [],
      "stateMutability": "nonpayable",
      "type": "function"
    },
    {
      "inputs": [
        {
          "internalType": "string",
          "name": "_serial_no",
          "type": "string"
        }
      ],
      "name": "burnWarrantyCardNFT",
      "outputs": [
        {
          "internalType": "bool",
          "name": "succeeded",
          "type": "bool"
        }
      ],
      "stateMutability": "nonpayable",
      "type": "function"
    },
    {
      "inputs": [
        {
          "internalType": "uint64",
          "name": "from",
          "type": "uint64"
        },
        {
          "internalType": "uint64",
          "name": "to",
          "type": "uint64"
        },
        {
          "internalType": "string",
          "name": "_serial_no",
          "type": "string"
        }
      ],
      "name": "sendOwnership",
      "outputs": [],
      "stateMutability": "nonpayable",
      "type": "function"
    },
    {
      "inputs": [
        {
          "internalType": "string",
          "name": "_serial_no",
          "type": "string"
        }
      ],
      "name": "getSerialNoOwnerMobileNo",
      "outputs": [
        {
          "internalType": "uint64",
          "name": "mobileNo",
          "type": "uint64"
        }
      ],
      "stateMutability": "view",
      "type": "function"
    },
    {
      "inputs": [
        {
          "internalType": "uint64",
          "name": "_mobile_no",
          "type": "uint64"
        },
        {
          "internalType": "string",
          "name": "_serial_no",
          "type": "string"
        }
      ],
      "name": "getNFTFor",
      "outputs": [
        {
          "components": [
            {
              "internalType": "uint64",
              "name": "startTimestamp",
              "type": "uint64"
            },
            {
              "internalType": "uint64",
              "name": "startAfter",
              "type": "uint64"
            },
            {
              "internalType": "string",
              "name": "serial_no",
              "type": "string"
            },
            {
              "internalType": "string",
              "name": "cid",
              "type": "string"
            }
          ],
          "internalType": "struct testing.nft",
          "name": "NFT",
          "type": "tuple"
        }
      ],
      "stateMutability": "view",
      "type": "function"
    }
  ],
  "bytecode": "0x60806040523480156200001157600080fd5b50336000806101000a81548173ffffffffffffffffffffffffffffffffffffffff021916908373ffffffffffffffffffffffffffffffffffffffff1602179055506200005c6200012d565b600381908060018154018082558091505060019003906000526020600020906003020160009091909190915060008201518160000160006101000a81548167ffffffffffffffff021916908367ffffffffffffffff16021790555060208201518160000160086101000a81548167ffffffffffffffff021916908367ffffffffffffffff16021790555060408201518160010190805190602001906200010492919062000169565b5060608201518160020190805190602001906200012392919062000169565b505050506200027d565b6040518060800160405280600067ffffffffffffffff168152602001600067ffffffffffffffff16815260200160608152602001606081525090565b828054620001779062000248565b90600052602060002090601f0160209004810192826200019b5760008555620001e7565b82601f10620001b657805160ff1916838001178555620001e7565b82800160010185558215620001e7579182015b82811115620001e6578251825591602001919060010190620001c9565b5b509050620001f69190620001fa565b5090565b5b8082111562000215576000816000905550600101620001fb565b5090565b7f4e487b7100000000000000000000000000000000000000000000000000000000600052602260045260246000fd5b600060028204905060018216806200026157607f821691505b60208210810362000277576200027662000219565b5b50919050565b611a7e806200028d6000396000f3fe608060405234801561001057600080fd5b50600436106100575760003560e01c80632236343b1461005c5780632b9cdc0d146100785780639f0d19de146100a8578063d6e63d72146100c4578063f3d44b9a146100f4575b600080fd5b610076600480360381019061007191906111ec565b610124565b005b610092600480360381019061008d9190611293565b6106f3565b60405161009f91906112fb565b60405180910390f35b6100c260048036038101906100bd9190611316565b610a6d565b005b6100de60048036038101906100d99190611293565b610d63565b6040516100eb9190611399565b60405180910390f35b61010e600480360381019061010991906113b4565b610da2565b60405161011b9190611526565b60405180910390f35b60008054906101000a900473ffffffffffffffffffffffffffffffffffffffff1673ffffffffffffffffffffffffffffffffffffffff163373ffffffffffffffffffffffffffffffffffffffff16146101b2576040517f08c379a00000000000000000000000000000000000000000000000000000000081526004016101a9906115cb565b60405180910390fd5b60008667ffffffffffffffff16036101ff576040517f08c379a00000000000000000000000000000000000000000000000000000000081526004016101f69061165d565b60405180910390fd5b6000600486866040516102139291906116bc565b908152602001604051809103902060009054906101000a900467ffffffffffffffff1667ffffffffffffffff1614610280576040517f08c379a000000000000000000000000000000000000000000000000000000000815260040161027790611721565b60405180910390fd5b60008167ffffffffffffffff1610156102ce576040517f08c379a00000000000000000000000000000000000000000000000000000000081526004016102c59061178d565b60405180910390fd5b600060405180608001604052804267ffffffffffffffff1681526020018367ffffffffffffffff16815260200187878080601f016020809104026020016040519081016040528093929190818152602001838380828437600081840152601f19601f82011690508083019250505050505050815260200185858080601f016020809104026020016040519081016040528093929190818152602001838380828437600081840152601f19601f8201169050808301925050505050505081525090506000806002805490500361047c57600382908060018154018082558091505060019003906000526020600020906003020160009091909190915060008201518160000160006101000a81548167ffffffffffffffff021916908367ffffffffffffffff16021790555060208201518160000160086101000a81548167ffffffffffffffff021916908367ffffffffffffffff160217905550604082015181600101908051906020019061044392919061101e565b50606082015181600201908051906020019061046092919061101e565b505050600160038054905061047591906117dc565b90506105dc565b60026001600280549050610490919061181a565b815481106104a1576104a061184e565b5b90600052602060002090600491828204019190066008029054906101000a900467ffffffffffffffff16905060028054806104df576104de61187d565b5b60019003818190600052602060002090600491828204019190066008026101000a81549067ffffffffffffffff021916905590558160038267ffffffffffffffff16815481106105325761053161184e565b5b906000526020600020906003020160008201518160000160006101000a81548167ffffffffffffffff021916908367ffffffffffffffff16021790555060208201518160000160086101000a81548167ffffffffffffffff021916908367ffffffffffffffff16021790555060408201518160010190805190602001906105ba92919061101e565b5060608201518160020190805190602001906105d792919061101e565b509050505b80600160008a67ffffffffffffffff1667ffffffffffffffff16815260200190815260200160002088886040516106149291906116bc565b908152602001604051809103902060006101000a81548167ffffffffffffffff021916908367ffffffffffffffff160217905550876004888860405161065b9291906116bc565b908152602001604051809103902060006101000a81548167ffffffffffffffff021916908367ffffffffffffffff160217905550868660405161069f9291906116bc565b60405180910390208867ffffffffffffffff167f4e5a9fa717ce9f14d92157fc1162f9732ec8380a8e05fce55a642076634fbdcc836040516106e19190611399565b60405180910390a35050505050505050565b60008060009054906101000a900473ffffffffffffffffffffffffffffffffffffffff1673ffffffffffffffffffffffffffffffffffffffff163373ffffffffffffffffffffffffffffffffffffffff1614610784576040517f08c379a000000000000000000000000000000000000000000000000000000000815260040161077b906115cb565b60405180910390fd5b6000600484846040516107989291906116bc565b908152602001604051809103902060009054906101000a900467ffffffffffffffff16905060008167ffffffffffffffff160361080a576040517f08c379a00000000000000000000000000000000000000000000000000000000081526004016108019061191e565b60405180910390fd5b6000600160008367ffffffffffffffff1667ffffffffffffffff16815260200190815260200160002085856040516108439291906116bc565b908152602001604051809103902060009054906101000a900467ffffffffffffffff169050600060038267ffffffffffffffff16815481106108885761088761184e565b5b90600052602060002090600302019050428160000160089054906101000a900467ffffffffffffffff168260000160009054906101000a900467ffffffffffffffff166108d5919061193e565b67ffffffffffffffff1610156108f15760009350505050610a67565b600160008467ffffffffffffffff1667ffffffffffffffff16815260200190815260200160002086866040516109289291906116bc565b908152602001604051809103902060006101000a81549067ffffffffffffffff02191690556004868660405161095f9291906116bc565b908152602001604051809103902060006101000a81549067ffffffffffffffff021916905560038267ffffffffffffffff16815481106109a2576109a161184e565b5b9060005260206000209060030201600080820160006101000a81549067ffffffffffffffff02191690556000820160086101000a81549067ffffffffffffffff02191690556001820160006109f791906110a4565b600282016000610a0791906110a4565b505060028290806001815401808255809150506001900390600052602060002090600491828204019190066008029091909190916101000a81548167ffffffffffffffff021916908367ffffffffffffffff160217905550600193505050505b92915050565b60008054906101000a900473ffffffffffffffffffffffffffffffffffffffff1673ffffffffffffffffffffffffffffffffffffffff163373ffffffffffffffffffffffffffffffffffffffff1614610afb576040517f08c379a0000000000000000000000000000000000000000000000000000000008152600401610af2906115cb565b60405180910390fd5b6000600160008667ffffffffffffffff1667ffffffffffffffff1681526020019081526020016000208383604051610b349291906116bc565b908152602001604051809103902060009054906101000a900467ffffffffffffffff16905060008167ffffffffffffffff1603610ba6576040517f08c379a0000000000000000000000000000000000000000000000000000000008152600401610b9d906119c8565b60405180910390fd5b600160008667ffffffffffffffff1667ffffffffffffffff1681526020019081526020016000208383604051610bdd9291906116bc565b908152602001604051809103902060006101000a81549067ffffffffffffffff021916905560008467ffffffffffffffff1603610c4f576040517f08c379a0000000000000000000000000000000000000000000000000000000008152600401610c469061191e565b60405180910390fd5b8360048484604051610c629291906116bc565b908152602001604051809103902060006101000a81548167ffffffffffffffff021916908367ffffffffffffffff16021790555080600160008667ffffffffffffffff1667ffffffffffffffff1681526020019081526020016000208484604051610cce9291906116bc565b908152602001604051809103902060006101000a81548167ffffffffffffffff021916908367ffffffffffffffff1602179055508282604051610d129291906116bc565b60405180910390208467ffffffffffffffff168667ffffffffffffffff167f6f78bfe7e99fa15223794f00ce138882222acd5d90c0edd266ae7644d01c669e60405160405180910390a45050505050565b600060048383604051610d779291906116bc565b908152602001604051809103902060009054906101000a900467ffffffffffffffff16905092915050565b610daa6110e4565b6000600160008667ffffffffffffffff1667ffffffffffffffff1681526020019081526020016000208484604051610de39291906116bc565b908152602001604051809103902060009054906101000a900467ffffffffffffffff16905060008167ffffffffffffffff1611610e55576040517f08c379a0000000000000000000000000000000000000000000000000000000008152600401610e4c906119c8565b60405180910390fd5b60038167ffffffffffffffff1681548110610e7357610e7261184e565b5b90600052602060002090600302016040518060800160405290816000820160009054906101000a900467ffffffffffffffff1667ffffffffffffffff1667ffffffffffffffff1681526020016000820160089054906101000a900467ffffffffffffffff1667ffffffffffffffff1667ffffffffffffffff168152602001600182018054610f0090611a17565b80601f0160208091040260200160405190810160405280929190818152602001828054610f2c90611a17565b8015610f795780601f10610f4e57610100808354040283529160200191610f79565b820191906000526020600020905b815481529060010190602001808311610f5c57829003601f168201915b50505050508152602001600282018054610f9290611a17565b80601f0160208091040260200160405190810160405280929190818152602001828054610fbe90611a17565b801561100b5780601f10610fe05761010080835404028352916020019161100b565b820191906000526020600020905b815481529060010190602001808311610fee57829003601f168201915b5050505050815250509150509392505050565b82805461102a90611a17565b90600052602060002090601f01602090048101928261104c5760008555611093565b82601f1061106557805160ff1916838001178555611093565b82800160010185558215611093579182015b82811115611092578251825591602001919060010190611077565b5b5090506110a09190611120565b5090565b5080546110b090611a17565b6000825580601f106110c257506110e1565b601f0160209004906000526020600020908101906110e09190611120565b5b50565b6040518060800160405280600067ffffffffffffffff168152602001600067ffffffffffffffff16815260200160608152602001606081525090565b5b80821115611139576000816000905550600101611121565b5090565b600080fd5b600080fd5b600067ffffffffffffffff82169050919050565b61116481611147565b811461116f57600080fd5b50565b6000813590506111818161115b565b92915050565b600080fd5b600080fd5b600080fd5b60008083601f8401126111ac576111ab611187565b5b8235905067ffffffffffffffff8111156111c9576111c861118c565b5b6020830191508360018202830111156111e5576111e4611191565b5b9250929050565b600080600080600080608087890312156112095761120861113d565b5b600061121789828a01611172565b965050602087013567ffffffffffffffff81111561123857611237611142565b5b61124489828a01611196565b9550955050604087013567ffffffffffffffff81111561126757611266611142565b5b61127389828a01611196565b9350935050606061128689828a01611172565b9150509295509295509295565b600080602083850312156112aa576112a961113d565b5b600083013567ffffffffffffffff8111156112c8576112c7611142565b5b6112d485828601611196565b92509250509250929050565b60008115159050919050565b6112f5816112e0565b82525050565b600060208201905061131060008301846112ec565b92915050565b600080600080606085870312156113305761132f61113d565b5b600061133e87828801611172565b945050602061134f87828801611172565b935050604085013567ffffffffffffffff8111156113705761136f611142565b5b61137c87828801611196565b925092505092959194509250565b61139381611147565b82525050565b60006020820190506113ae600083018461138a565b92915050565b6000806000604084860312156113cd576113cc61113d565b5b60006113db86828701611172565b935050602084013567ffffffffffffffff8111156113fc576113fb611142565b5b61140886828701611196565b92509250509250925092565b61141d81611147565b82525050565b600081519050919050565b600082825260208201905092915050565b60005b8381101561145d578082015181840152602081019050611442565b8381111561146c576000848401525b50505050565b6000601f19601f8301169050919050565b600061148e82611423565b611498818561142e565b93506114a881856020860161143f565b6114b181611472565b840191505092915050565b60006080830160008301516114d46000860182611414565b5060208301516114e76020860182611414565b50604083015184820360408601526114ff8282611483565b915050606083015184820360608601526115198282611483565b9150508091505092915050565b6000602082019050818103600083015261154081846114bc565b905092915050565b600082825260208201905092915050565b7f4f6e6c79206f776e657220697320616c6c6f77656420746f20706572666f726d60008201527f2074686973206f7065726174696f6e0000000000000000000000000000000000602082015250565b60006115b5602f83611548565b91506115c082611559565b604082019050919050565b600060208201905081810360008301526115e4816115a8565b9050919050565b7f706c656173652070726f766964652076616c6964206d6f62696c65206e756d6260008201527f6572000000000000000000000000000000000000000000000000000000000000602082015250565b6000611647602283611548565b9150611652826115eb565b604082019050919050565b600060208201905081810360008301526116768161163a565b9050919050565b600081905092915050565b82818337600083830152505050565b60006116a3838561167d565b93506116b0838584611688565b82840190509392505050565b60006116c9828486611697565b91508190509392505050565b7f53657269616c206e756d62657220697320616c72656164792074616b656e0000600082015250565b600061170b601e83611548565b9150611716826116d5565b602082019050919050565b6000602082019050818103600083015261173a816116fe565b9050919050565b7f6e6f742076616c69642073746172742074696d65000000000000000000000000600082015250565b6000611777601483611548565b915061178282611741565b602082019050919050565b600060208201905081810360008301526117a68161176a565b9050919050565b7f4e487b7100000000000000000000000000000000000000000000000000000000600052601160045260246000fd5b60006117e782611147565b91506117f283611147565b925082821015611805576118046117ad565b5b828203905092915050565b6000819050919050565b600061182582611810565b915061183083611810565b925082821015611843576118426117ad565b5b828203905092915050565b7f4e487b7100000000000000000000000000000000000000000000000000000000600052603260045260246000fd5b7f4e487b7100000000000000000000000000000000000000000000000000000000600052603160045260246000fd5b7f546869732073657269616c206e756d62657220686173206e6f2077617272616e60008201527f7479204e46540000000000000000000000000000000000000000000000000000602082015250565b6000611908602683611548565b9150611913826118ac565b604082019050919050565b60006020820190508181036000830152611937816118fb565b9050919050565b600061194982611147565b915061195483611147565b92508267ffffffffffffffff03821115611971576119706117ad565b5b828201905092915050565b7f506c656173652070726f7669646520636f727265637420646174610000000000600082015250565b60006119b2601b83611548565b91506119bd8261197c565b602082019050919050565b600060208201905081810360008301526119e1816119a5565b9050919050565b7f4e487b7100000000000000000000000000000000000000000000000000000000600052602260045260246000fd5b60006002820490506001821680611a2f57607f821691505b602082108103611a4257611a416119e8565b5b5091905056fea26469706673582212205761696c8eabb7b326bb692f0dc012efa6232c1033a9e7a7e2b09ec4b059ec4264736f6c634300080d0033",
  "immutableReferences": {},
  "source": "//SPDX-License-Identifier: MIT\r\npragma solidity ^0.8.13;\r\n\r\n\r\ncontract testing{\r\n    address private owner;\r\n    struct nft{\r\n        uint64 startTimestamp;\r\n        uint64 startAfter;\r\n        string serial_no;\r\n        string cid;\r\n    }\r\n\r\n    mapping(uint64=>mapping(string=>uint64)) private myNFT;\r\n    uint64[] private erased;\r\n    nft[] nft_collection;\r\n    mapping(string=>uint64)private serial_no_owner_mob_no;\r\n    modifier onlyOwner() {\r\n        require(msg.sender==owner,\"Only owner is allowed to perform this operation\");\r\n        _;\r\n    }\r\n    \r\n    event Mint(uint64 indexed to,string indexed serial_no,uint64 tokenNo);\r\n    event Transfer(uint64 indexed from, uint64 indexed to,string indexed serial_no);\r\n\r\n    constructor(){\r\n        owner=msg.sender;\r\n        nft memory tempNFt;\r\n        nft_collection.push(tempNFt);\r\n    }\r\n\r\n    function mintWarrantyCardNFT(uint64 _mobile_no,string calldata _serial_no,string calldata _cid,uint64 _startAfter) external onlyOwner{\r\n        require(_mobile_no!=0,\"please provide valid mobile number\");\r\n        require(serial_no_owner_mob_no[_serial_no]==0,\"Serial number is already taken\");\r\n        require(_startAfter>=0,\"not valid start time\");\r\n        nft memory newNft=nft(uint64(block.timestamp),_startAfter,_serial_no,_cid);\r\n        uint64 tokenNo;\r\n\r\n        if(erased.length==0){\r\n            nft_collection.push(newNft);\r\n            tokenNo=uint64(nft_collection.length)-1;\r\n        }else{\r\n            tokenNo=erased[erased.length-1];\r\n            erased.pop();\r\n            nft_collection[tokenNo]=newNft;\r\n        }\r\n\r\n        myNFT[_mobile_no][_serial_no]=tokenNo;\r\n        serial_no_owner_mob_no[_serial_no]=_mobile_no;\r\n        emit Mint(_mobile_no,_serial_no,tokenNo);\r\n    }\r\n\r\n    function burnWarrantyCardNFT(string calldata _serial_no) external onlyOwner returns(bool succeeded){\r\n        uint64 mobile_no=serial_no_owner_mob_no[_serial_no];\r\n        require(mobile_no!=0,\"This serial number has no warranty NFT\");\r\n        uint64 tokenNo=myNFT[mobile_no][_serial_no];\r\n        nft storage wc=nft_collection[tokenNo];\r\n\r\n        if(wc.startTimestamp+wc.startAfter<block.timestamp)\r\n            return false;\r\n\r\n        delete myNFT[mobile_no][_serial_no];\r\n        delete serial_no_owner_mob_no[_serial_no];\r\n        delete nft_collection[tokenNo];\r\n        erased.push(tokenNo);\r\n        return true;\r\n    }\r\n\r\n    function sendOwnership(uint64 from ,uint64 to, string calldata _serial_no) external onlyOwner{\r\n        uint64 tokenNo=myNFT[from][_serial_no];\r\n        require(tokenNo!=0,\"Please provide correct data\");\r\n        delete myNFT[from][_serial_no];\r\n        require(to!=0,\"This serial number has no warranty NFT\");\r\n        serial_no_owner_mob_no[_serial_no]=to;\r\n        myNFT[to][_serial_no]=tokenNo;\r\n        emit Transfer(from,to,_serial_no);\r\n    }\r\n\r\n    function getSerialNoOwnerMobileNo(string calldata _serial_no) external view returns(uint64 mobileNo){\r\n        return serial_no_owner_mob_no[_serial_no];\r\n    }\r\n\r\n    function getNFTFor(uint64 _mobile_no,string calldata _serial_no) external view returns(nft memory NFT){\r\n        uint64 tokenId=myNFT[_mobile_no][_serial_no];\r\n        require(tokenId>0,\"Please provide correct data\");\r\n        return nft_collection[tokenId];\r\n    }\r\n}",
  "sourcePath": "C:\\Users\\Durgesh Maurya\\Desktop\\flipkart\\smartContracts\\contracts\\Migrations.sol",
  "compiler": {
    "name": "solc",
    "version": "0.8.13+commit.abaa5c0e.Emscripten.clang"
  },
  "schemaVersion": "3.4.6",
  "updatedAt": "2022-07-20T06:02:20.793Z",
  "devdoc": {
    "kind": "dev",
    "methods": {},
    "version": 1
  },
  "userdoc": {
    "kind": "user",
    "methods": {},
    "version": 1
  }
}